{
  "contractName": "Proyects",
  "abi": [
    {
      "anonymous": false,
      "inputs": [
        {
          "indexed": false,
          "internalType": "string",
          "name": "_proyectId",
          "type": "string"
        },
        {
          "indexed": false,
          "internalType": "enum Proyects.FundraisingState",
          "name": "_newState",
          "type": "uint8"
        }
      ],
      "name": "ChangeProyectState",
      "type": "event"
    },
    {
      "anonymous": false,
      "inputs": [
        {
          "indexed": false,
          "internalType": "string",
          "name": "_proyectId",
          "type": "string"
        },
        {
          "indexed": false,
          "internalType": "uint256",
          "name": "_value",
          "type": "uint256"
        },
        {
          "indexed": false,
          "internalType": "uint256",
          "name": "_founds",
          "type": "uint256"
        }
      ],
      "name": "FundProyect",
      "type": "event"
    },
    {
      "anonymous": false,
      "inputs": [
        {
          "indexed": false,
          "internalType": "string",
          "name": "_proyectId",
          "type": "string"
        },
        {
          "indexed": false,
          "internalType": "string",
          "name": "_nameProyect",
          "type": "string"
        },
        {
          "indexed": false,
          "internalType": "string",
          "name": "_description",
          "type": "string"
        },
        {
          "indexed": false,
          "internalType": "uint256",
          "name": "fundraisingGoal",
          "type": "uint256"
        }
      ],
      "name": "proyectCreated",
      "type": "event"
    },
    {
      "inputs": [
        {
          "internalType": "string",
          "name": "",
          "type": "string"
        },
        {
          "internalType": "uint256",
          "name": "",
          "type": "uint256"
        }
      ],
      "name": "contributions",
      "outputs": [
        {
          "internalType": "address",
          "name": "contributor",
          "type": "address"
        },
        {
          "internalType": "uint256",
          "name": "value",
          "type": "uint256"
        }
      ],
      "stateMutability": "view",
      "type": "function",
      "constant": true
    },
    {
      "inputs": [
        {
          "internalType": "uint256",
          "name": "",
          "type": "uint256"
        }
      ],
      "name": "proyects",
      "outputs": [
        {
          "internalType": "string",
          "name": "id",
          "type": "string"
        },
        {
          "internalType": "string",
          "name": "nameProyect",
          "type": "string"
        },
        {
          "internalType": "string",
          "name": "description",
          "type": "string"
        },
        {
          "internalType": "enum Proyects.FundraisingState",
          "name": "state",
          "type": "uint8"
        },
        {
          "internalType": "uint256",
          "name": "founds",
          "type": "uint256"
        },
        {
          "internalType": "uint256",
          "name": "fundraisingGoal",
          "type": "uint256"
        },
        {
          "internalType": "address payable",
          "name": "author",
          "type": "address"
        }
      ],
      "stateMutability": "view",
      "type": "function",
      "constant": true
    },
    {
      "inputs": [
        {
          "internalType": "string",
          "name": "_id",
          "type": "string"
        },
        {
          "internalType": "string",
          "name": "_nameProyect",
          "type": "string"
        },
        {
          "internalType": "string",
          "name": "_description",
          "type": "string"
        },
        {
          "internalType": "uint256",
          "name": "_fundraisingGoal",
          "type": "uint256"
        }
      ],
      "name": "createProyect",
      "outputs": [],
      "stateMutability": "nonpayable",
      "type": "function"
    },
    {
      "inputs": [
        {
          "internalType": "uint256",
          "name": "index",
          "type": "uint256"
        }
      ],
      "name": "fundProyect",
      "outputs": [],
      "stateMutability": "payable",
      "type": "function",
      "payable": true
    },
    {
      "inputs": [
        {
          "internalType": "uint256",
          "name": "index",
          "type": "uint256"
        },
        {
          "internalType": "enum Proyects.FundraisingState",
          "name": "_newState",
          "type": "uint8"
        }
      ],
      "name": "changeProyectState",
      "outputs": [],
      "stateMutability": "nonpayable",
      "type": "function"
    }
  ],
  "bytecode": "0x608060405234801561001057600080fd5b506121b5806100206000396000f3fe60806040526004361061004a5760003560e01c806318450e0f1461004f57806368fc692f146100785780637f3fcdd9146100a1578063b5491839146100df578063b825f232146100fb575b600080fd5b34801561005b57600080fd5b5061007660048036038101906100719190611727565b61013e565b005b34801561008457600080fd5b5061009f600480360381019061009a919061186b565b610336565b005b3480156100ad57600080fd5b506100c860048036038101906100c391906117e2565b610aa6565b6040516100d6929190611a3a565b60405180910390f35b6100f960048036038101906100f4919061183e565b610b1d565b005b34801561010757600080fd5b50610122600480360381019061011d919061183e565b6113d3565b6040516101359796959493929190611a93565b60405180910390f35b60008111610181576040517f08c379a000000000000000000000000000000000000000000000000000000000815260040161017890611bcf565b60405180910390fd5b60006040518060e00160405280868152602001858152602001848152602001600060018111156101b4576101b3611e89565b5b8152602001600081526020018381526020013373ffffffffffffffffffffffffffffffffffffffff1681525090506000819080600181540180825580915050600190039060005260206000209060070201600090919091909150600082015181600001908051906020019061022a9291906115ea565b5060208201518160010190805190602001906102479291906115ea565b5060408201518160020190805190602001906102649291906115ea565b5060608201518160030160006101000a81548160ff021916908360018111156102905761028f611e89565b5b02179055506080820151816004015560a0820151816005015560c08201518160060160006101000a81548173ffffffffffffffffffffffffffffffffffffffff021916908373ffffffffffffffffffffffffffffffffffffffff16021790555050507f39120b2b31589118bb8af19ba5d2c2b819d3d5acd5b21e01708d179444f109e2858586856040516103279493929190611b17565b60405180910390a15050505050565b81600080828154811061034c5761034b611ee7565b5b90600052602060002090600702016040518060e001604052908160008201805461037590611df7565b80601f01602080910402602001604051908101604052809291908181526020018280546103a190611df7565b80156103ee5780601f106103c3576101008083540402835291602001916103ee565b820191906000526020600020905b8154815290600101906020018083116103d157829003601f168201915b5050505050815260200160018201805461040790611df7565b80601f016020809104026020016040519081016040528092919081815260200182805461043390611df7565b80156104805780601f1061045557610100808354040283529160200191610480565b820191906000526020600020905b81548152906001019060200180831161046357829003601f168201915b5050505050815260200160028201805461049990611df7565b80601f01602080910402602001604051908101604052809291908181526020018280546104c590611df7565b80156105125780601f106104e757610100808354040283529160200191610512565b820191906000526020600020905b8154815290600101906020018083116104f557829003601f168201915b505050505081526020016003820160009054906101000a900460ff1660018111156105405761053f611e89565b5b600181111561055257610551611e89565b5b815260200160048201548152602001600582015481526020016006820160009054906101000a900473ffffffffffffffffffffffffffffffffffffffff1673ffffffffffffffffffffffffffffffffffffffff1673ffffffffffffffffffffffffffffffffffffffff168152505090503373ffffffffffffffffffffffffffffffffffffffff168160c0015173ffffffffffffffffffffffffffffffffffffffff1614610634576040517f08c379a000000000000000000000000000000000000000000000000000000000815260040161062b90611c4f565b60405180910390fd5b600080858154811061064957610648611ee7565b5b90600052602060002090600702016040518060e001604052908160008201805461067290611df7565b80601f016020809104026020016040519081016040528092919081815260200182805461069e90611df7565b80156106eb5780601f106106c0576101008083540402835291602001916106eb565b820191906000526020600020905b8154815290600101906020018083116106ce57829003601f168201915b5050505050815260200160018201805461070490611df7565b80601f016020809104026020016040519081016040528092919081815260200182805461073090611df7565b801561077d5780601f106107525761010080835404028352916020019161077d565b820191906000526020600020905b81548152906001019060200180831161076057829003601f168201915b5050505050815260200160028201805461079690611df7565b80601f01602080910402602001604051908101604052809291908181526020018280546107c290611df7565b801561080f5780601f106107e45761010080835404028352916020019161080f565b820191906000526020600020905b8154815290600101906020018083116107f257829003601f168201915b505050505081526020016003820160009054906101000a900460ff16600181111561083d5761083c611e89565b5b600181111561084f5761084e611e89565b5b815260200160048201548152602001600582015481526020016006820160009054906101000a900473ffffffffffffffffffffffffffffffffffffffff1673ffffffffffffffffffffffffffffffffffffffff1673ffffffffffffffffffffffffffffffffffffffff168152505090508360018111156108d2576108d1611e89565b5b816060015160018111156108e9576108e8611e89565b5b141561092a576040517f08c379a000000000000000000000000000000000000000000000000000000000815260040161092190611bef565b60405180910390fd5b838160600190600181111561094257610941611e89565b5b9081600181111561095657610955611e89565b5b81525050806000868154811061096f5761096e611ee7565b5b906000526020600020906007020160008201518160000190805190602001906109999291906115ea565b5060208201518160010190805190602001906109b69291906115ea565b5060408201518160020190805190602001906109d39291906115ea565b5060608201518160030160006101000a81548160ff021916908360018111156109ff576109fe611e89565b5b02179055506080820151816004015560a0820151816005015560c08201518160060160006101000a81548173ffffffffffffffffffffffffffffffffffffffff021916908373ffffffffffffffffffffffffffffffffffffffff1602179055509050507f0276af5ab97ead973dd40af6f1ce1e37d215f5185cb10015a2e30d4201632f6f816000015185604051610a97929190611a63565b60405180910390a15050505050565b6001828051602081018201805184825260208301602085012081835280955050505050508181548110610ad857600080fd5b9060005260206000209060020201600091509150508060000160009054906101000a900473ffffffffffffffffffffffffffffffffffffffff16908060010154905082565b806000808281548110610b3357610b32611ee7565b5b90600052602060002090600702016040518060e0016040529081600082018054610b5c90611df7565b80601f0160208091040260200160405190810160405280929190818152602001828054610b8890611df7565b8015610bd55780601f10610baa57610100808354040283529160200191610bd5565b820191906000526020600020905b815481529060010190602001808311610bb857829003601f168201915b50505050508152602001600182018054610bee90611df7565b80601f0160208091040260200160405190810160405280929190818152602001828054610c1a90611df7565b8015610c675780601f10610c3c57610100808354040283529160200191610c67565b820191906000526020600020905b815481529060010190602001808311610c4a57829003601f168201915b50505050508152602001600282018054610c8090611df7565b80601f0160208091040260200160405190810160405280929190818152602001828054610cac90611df7565b8015610cf95780601f10610cce57610100808354040283529160200191610cf9565b820191906000526020600020905b815481529060010190602001808311610cdc57829003601f168201915b505050505081526020016003820160009054906101000a900460ff166001811115610d2757610d26611e89565b5b6001811115610d3957610d38611e89565b5b815260200160048201548152602001600582015481526020016006820160009054906101000a900473ffffffffffffffffffffffffffffffffffffffff1673ffffffffffffffffffffffffffffffffffffffff1673ffffffffffffffffffffffffffffffffffffffff168152505090503373ffffffffffffffffffffffffffffffffffffffff168160c0015173ffffffffffffffffffffffffffffffffffffffff161415610e1c576040517f08c379a0000000000000000000000000000000000000000000000000000000008152600401610e1390611c0f565b60405180910390fd5b6000808481548110610e3157610e30611ee7565b5b90600052602060002090600702016040518060e0016040529081600082018054610e5a90611df7565b80601f0160208091040260200160405190810160405280929190818152602001828054610e8690611df7565b8015610ed35780601f10610ea857610100808354040283529160200191610ed3565b820191906000526020600020905b815481529060010190602001808311610eb657829003601f168201915b50505050508152602001600182018054610eec90611df7565b80601f0160208091040260200160405190810160405280929190818152602001828054610f1890611df7565b8015610f655780601f10610f3a57610100808354040283529160200191610f65565b820191906000526020600020905b815481529060010190602001808311610f4857829003601f168201915b50505050508152602001600282018054610f7e90611df7565b80601f0160208091040260200160405190810160405280929190818152602001828054610faa90611df7565b8015610ff75780601f10610fcc57610100808354040283529160200191610ff7565b820191906000526020600020905b815481529060010190602001808311610fda57829003601f168201915b505050505081526020016003820160009054906101000a900460ff16600181111561102557611024611e89565b5b600181111561103757611036611e89565b5b815260200160048201548152602001600582015481526020016006820160009054906101000a900473ffffffffffffffffffffffffffffffffffffffff1673ffffffffffffffffffffffffffffffffffffffff1673ffffffffffffffffffffffffffffffffffffffff16815250509050600060018111156110bb576110ba611e89565b5b816060015160018111156110d2576110d1611e89565b5b14611112576040517f08c379a000000000000000000000000000000000000000000000000000000000815260040161110990611baf565b60405180910390fd5b60003411611155576040517f08c379a000000000000000000000000000000000000000000000000000000000815260040161114c90611c2f565b60405180910390fd5b8060c0015173ffffffffffffffffffffffffffffffffffffffff166108fc349081150290604051600060405180830381858888f1935050505015801561119f573d6000803e3d6000fd5b5034816080018181516111b29190611cec565b9150818152505080600085815481106111ce576111cd611ee7565b5b906000526020600020906007020160008201518160000190805190602001906111f89291906115ea565b5060208201518160010190805190602001906112159291906115ea565b5060408201518160020190805190602001906112329291906115ea565b5060608201518160030160006101000a81548160ff0219169083600181111561125e5761125d611e89565b5b02179055506080820151816004015560a0820151816005015560c08201518160060160006101000a81548173ffffffffffffffffffffffffffffffffffffffff021916908373ffffffffffffffffffffffffffffffffffffffff160217905550905050600181600001516040516112d59190611a23565b908152602001604051809103902060405180604001604052803373ffffffffffffffffffffffffffffffffffffffff16815260200134815250908060018154018082558091505060019003906000526020600020906002020160009091909190915060008201518160000160006101000a81548173ffffffffffffffffffffffffffffffffffffffff021916908373ffffffffffffffffffffffffffffffffffffffff1602179055506020820151816001015550507fc3ec1b253cde6c8975fbf002e0be2380daa945f2fddb7c3d15a2fad47ba5b02b81600001513483608001516040516113c593929190611b71565b60405180910390a150505050565b600081815481106113e357600080fd5b906000526020600020906007020160009150905080600001805461140690611df7565b80601f016020809104026020016040519081016040528092919081815260200182805461143290611df7565b801561147f5780601f106114545761010080835404028352916020019161147f565b820191906000526020600020905b81548152906001019060200180831161146257829003601f168201915b50505050509080600101805461149490611df7565b80601f01602080910402602001604051908101604052809291908181526020018280546114c090611df7565b801561150d5780601f106114e25761010080835404028352916020019161150d565b820191906000526020600020905b8154815290600101906020018083116114f057829003601f168201915b50505050509080600201805461152290611df7565b80601f016020809104026020016040519081016040528092919081815260200182805461154e90611df7565b801561159b5780601f106115705761010080835404028352916020019161159b565b820191906000526020600020905b81548152906001019060200180831161157e57829003601f168201915b5050505050908060030160009054906101000a900460ff16908060040154908060050154908060060160009054906101000a900473ffffffffffffffffffffffffffffffffffffffff16905087565b8280546115f690611df7565b90600052602060002090601f016020900481019282611618576000855561165f565b82601f1061163157805160ff191683800117855561165f565b8280016001018555821561165f579182015b8281111561165e578251825591602001919060010190611643565b5b50905061166c9190611670565b5090565b5b80821115611689576000816000905550600101611671565b5090565b60006116a061169b84611c94565b611c6f565b9050828152602081018484840111156116bc576116bb611f4a565b5b6116c7848285611db5565b509392505050565b6000813590506116de81612158565b92915050565b600082601f8301126116f9576116f8611f45565b5b813561170984826020860161168d565b91505092915050565b60008135905061172181612168565b92915050565b6000806000806080858703121561174157611740611f54565b5b600085013567ffffffffffffffff81111561175f5761175e611f4f565b5b61176b878288016116e4565b945050602085013567ffffffffffffffff81111561178c5761178b611f4f565b5b611798878288016116e4565b935050604085013567ffffffffffffffff8111156117b9576117b8611f4f565b5b6117c5878288016116e4565b92505060606117d687828801611712565b91505092959194509250565b600080604083850312156117f9576117f8611f54565b5b600083013567ffffffffffffffff81111561181757611816611f4f565b5b611823858286016116e4565b925050602061183485828601611712565b9150509250929050565b60006020828403121561185457611853611f54565b5b600061186284828501611712565b91505092915050565b6000806040838503121561188257611881611f54565b5b600061189085828601611712565b92505060206118a1858286016116cf565b9150509250929050565b6118b481611d54565b82525050565b6118c381611d42565b82525050565b6118d281611da3565b82525050565b60006118e382611cc5565b6118ed8185611cd0565b93506118fd818560208601611dc4565b61190681611f59565b840191505092915050565b600061191c82611cc5565b6119268185611ce1565b9350611936818560208601611dc4565b80840191505092915050565b600061194f603483611cd0565b915061195a82611f6a565b604082019050919050565b6000611972602783611cd0565b915061197d82611fb9565b604082019050919050565b6000611995604183611cd0565b91506119a082612008565b606082019050919050565b60006119b8602983611cd0565b91506119c38261207d565b604082019050919050565b60006119db602a83611cd0565b91506119e6826120cc565b604082019050919050565b60006119fe601f83611cd0565b9150611a098261211b565b602082019050919050565b611a1d81611d99565b82525050565b6000611a2f8284611911565b915081905092915050565b6000604082019050611a4f60008301856118ba565b611a5c6020830184611a14565b9392505050565b60006040820190508181036000830152611a7d81856118d8565b9050611a8c60208301846118c9565b9392505050565b600060e0820190508181036000830152611aad818a6118d8565b90508181036020830152611ac181896118d8565b90508181036040830152611ad581886118d8565b9050611ae460608301876118c9565b611af16080830186611a14565b611afe60a0830185611a14565b611b0b60c08301846118ab565b98975050505050505050565b60006080820190508181036000830152611b3181876118d8565b90508181036020830152611b4581866118d8565b90508181036040830152611b5981856118d8565b9050611b686060830184611a14565b95945050505050565b60006060820190508181036000830152611b8b81866118d8565b9050611b9a6020830185611a14565b611ba76040830184611a14565b949350505050565b60006020820190508181036000830152611bc881611942565b9050919050565b60006020820190508181036000830152611be881611965565b9050919050565b60006020820190508181036000830152611c0881611988565b9050919050565b60006020820190508181036000830152611c28816119ab565b9050919050565b60006020820190508181036000830152611c48816119ce565b9050919050565b60006020820190508181036000830152611c68816119f1565b9050919050565b6000611c79611c8a565b9050611c858282611e29565b919050565b6000604051905090565b600067ffffffffffffffff821115611caf57611cae611f16565b5b611cb882611f59565b9050602081019050919050565b600081519050919050565b600082825260208201905092915050565b600081905092915050565b6000611cf782611d99565b9150611d0283611d99565b9250827fffffffffffffffffffffffffffffffffffffffffffffffffffffffffffffffff03821115611d3757611d36611e5a565b5b828201905092915050565b6000611d4d82611d79565b9050919050565b6000611d5f82611d79565b9050919050565b6000819050611d7482612144565b919050565b600073ffffffffffffffffffffffffffffffffffffffff82169050919050565b6000819050919050565b6000611dae82611d66565b9050919050565b82818337600083830152505050565b60005b83811015611de2578082015181840152602081019050611dc7565b83811115611df1576000848401525b50505050565b60006002820490506001821680611e0f57607f821691505b60208210811415611e2357611e22611eb8565b5b50919050565b611e3282611f59565b810181811067ffffffffffffffff82111715611e5157611e50611f16565b5b80604052505050565b7f4e487b7100000000000000000000000000000000000000000000000000000000600052601160045260246000fd5b7f4e487b7100000000000000000000000000000000000000000000000000000000600052602160045260246000fd5b7f4e487b7100000000000000000000000000000000000000000000000000000000600052602260045260246000fd5b7f4e487b7100000000000000000000000000000000000000000000000000000000600052603260045260246000fd5b7f4e487b7100000000000000000000000000000000000000000000000000000000600052604160045260246000fd5b600080fd5b600080fd5b600080fd5b600080fd5b6000601f19601f8301169050919050565b7f546869732070726f6a65637420697320616c726561647920636c6f7365642c2060008201527f796f752063616e742073656e6420666f756e6473000000000000000000000000602082015250565b7f66756e6472616973696e6720676f616c206d757374206265206772656174657260008201527f207468616e203000000000000000000000000000000000000000000000000000602082015250565b7f596f752073686f756c64206368616e676520746865206e65772073746174652c60008201527f2074686973206973207468652073616d6520617320746865206c617374206f6e60208201527f6500000000000000000000000000000000000000000000000000000000000000604082015250565b7f546865206f776e65722063616e742073656e6420666f756e647320746f20686960008201527f732070726f796563740000000000000000000000000000000000000000000000602082015250565b7f596f75206e65656420746f206769766520612076616c7565206772656174657260008201527f207468616e207a65726f00000000000000000000000000000000000000000000602082015250565b7f4f6e6c79206f776e65722063616e206368616e67652074686520737461746500600082015250565b6002811061215557612154611e89565b5b50565b6002811061216557600080fd5b50565b61217181611d99565b811461217c57600080fd5b5056fea2646970667358221220f347b394cb76c8437c0b3f5414c52ce55fc35471ea798733845154eb323f54e964736f6c63430008070033",
  "immutableReferences": {},
  "source": "// SPDX-License-Identifier: GPL-3.0\r\n\r\npragma solidity >=0.7.0 <0.9.0;\r\n\r\ncontract Proyects{\r\n    enum FundraisingState {Opened, Closed}\r\n    \r\n    struct Contributtion{\r\n        address contributor;\r\n        uint value;\r\n    }\r\n    struct Proyect {\r\n        string id;\r\n        string nameProyect;\r\n        string description;\r\n        FundraisingState state;\r\n        uint founds;\r\n        uint fundraisingGoal;\r\n        address payable author;\r\n    }\r\n    \r\n    Proyect[] public proyects;\r\n    \r\n    mapping(string=>Contributtion[]) public contributions;\r\n    \r\n    event FundProyect(string _proyectId , uint _value, uint _founds);\r\n    \r\n    event ChangeProyectState(string _proyectId, FundraisingState _newState);\r\n    \r\n    event proyectCreated(string _proyectId, string _nameProyect, string _description, uint fundraisingGoal);\r\n    \r\n    modifier onlyOwnerChangeState(uint index){\r\n        Proyect memory proyect=proyects[index];\r\n        require(proyect.author==msg.sender, \"Only owner can change the state\");\r\n        _;\r\n    }\r\n    modifier sendFounds(uint index){\r\n        Proyect memory proyect=proyects[index];\r\n        require(proyect.author!=msg.sender, \"The owner cant send founds to his proyect\");\r\n        _;\r\n    }\r\n    \r\n    function createProyect(string memory _id, string memory _nameProyect, string memory _description, uint _fundraisingGoal)public{\r\n        require(_fundraisingGoal>0,\"fundraising goal must be greater than 0\");\r\n        Proyect memory proyect=Proyect(_id, _nameProyect, _description, FundraisingState.Opened , 0 , _fundraisingGoal,payable (msg.sender));\r\n        proyects.push(proyect);\r\n        emit proyectCreated( _id, _nameProyect, _nameProyect, _fundraisingGoal);\r\n    }\r\n    \r\n    function fundProyect(uint index) public payable sendFounds(index){\r\n        Proyect memory proyect=proyects[index];\r\n        // 0 is open && 1 is closed\r\n        require(proyect.state == FundraisingState.Opened , \"This project is already closed, you cant send founds\");\r\n        require(msg.value> 0 , \"You need to give a value greater than zero\");\r\n        proyect.author.transfer(msg.value);\r\n        proyect.founds += msg.value;\r\n        proyects[index]=proyect;\r\n        contributions[proyect.id].push(Contributtion(msg.sender, msg.value));\r\n        emit FundProyect(proyect.id, msg.value, proyect.founds);\r\n    }\r\n    function changeProyectState(uint index, FundraisingState _newState) public onlyOwnerChangeState(index){\r\n        Proyect memory proyect=proyects[index];\r\n        require(proyect.state != _newState, \"You should change the new state, this is the same as the last one\");\r\n        proyect.state = _newState;\r\n        proyects[index]=proyect;\r\n        emit ChangeProyectState(proyect.id, _newState);\r\n    }\r\n}",
  "sourcePath": "C:\\Users\\johan\\Desktop\\Curso-Solidity\\contracts\\Proyects.sol",
  "compiler": {
    "name": "solc",
    "version": "0.8.7+commit.e28d00a7.Emscripten.clang"
  },
  "schemaVersion": "3.4.3",
  "updatedAt": "2021-11-09T15:25:00.453Z",
  "networkType": "ethereum",
  "devdoc": {
    "kind": "dev",
    "methods": {},
    "version": 1
  },
  "userdoc": {
    "kind": "user",
    "methods": {},
    "version": 1
  }
}